:0300000002007C7F
:0C007C00787FE4F6D8FD75810902003B96
:10003B00120003E4F508F509E5A025E025E0F5A09D
:10004B001200060509E50970020508C39403E508CB
:0B005B006480948040E212000380D813
:0700030075A0037FF47E01EC
:10000A008F828E83AF82AE83EE3395E0FDFCE4FBF4
:10001A00FAF9F8C312006650177F6E7E00EF1F7060
:10002A00011EEF4E70F7E582158270D8158380D4D1
:01003A0022A3
:10006600EB9FF5F0EA9E42F0E99D42F0EC6480C811
:0600760064809845F022B1
:00000001FF
